:020000040800F2
:10000000000003202D010008480100084C010008F1
:0C001000500100085401000858010008CD
:10001C0020227FF00F03052402FB03F052FB03F0B8
:10002C0002FB0340A2FB030182FB030140F2020529
:10003C00C0F2030540F20406C0F2050615FB16F0EB
:10004C0015FB36F015FB06F015FB26F025FB06F02C
:10005C0025FB16F045FB06F045FB16F092FBF3F082
:10006C00B3FBF2F070474FF020314FF0803201F3C8
:10007C000F0002F30F0021F3070081F3100082F34D
:10008C001000A1F3080070473010608040902000F1
:10009C001FF80C004FF000014FF00002AFF21803F4
:1000AC009C5C844204DC02F10102082A03D0F7D1E3
:1000BC0020461146F7E7704700B500F001F800BD87
:1000CC00002000210022002370471FF844004FF04D
:1000DC0000014FF00002AFF250039C5C8442C4BF9D
:1000EC002046114602F10102082A18BFF5E77047B5
:1000FC000AA04FF00001D0E801F001F10101042940
:10010C00F9D170474FF01002F7E74FF02002F4E7F7
:10011C004FF03002F1E74FF04002EEE705080B0E0E
:10012C00FFF776FFFFF79FFF09488047FFF7B0FF07
:10013C00FFF7CBFFFFF7DCFFFFF7F2BFFFF7FEFF88
:10014C00FFF7FEFFFFF7FEFFFFF7FEFFFFF7FEFFD7
:04015C00C5000008D2
:04016000F8B500BF2F
:04016400F8B500BF2B
:040000050800012DC1
:00000001FF
